{
  "address": "0x24B86859e2cD6E655f740a8307b884e325A56455",
  "abi": [
    {
      "inputs": [],
      "stateMutability": "nonpayable",
      "type": "constructor"
    },
    {
      "inputs": [],
      "name": "InvalidInitialization",
      "type": "error"
    },
    {
      "inputs": [],
      "name": "NotInitializing",
      "type": "error"
    },
    {
      "inputs": [
        {
          "internalType": "address",
          "name": "owner",
          "type": "address"
        }
      ],
      "name": "OwnableInvalidOwner",
      "type": "error"
    },
    {
      "inputs": [
        {
          "internalType": "address",
          "name": "account",
          "type": "address"
        }
      ],
      "name": "OwnableUnauthorizedAccount",
      "type": "error"
    },
    {
      "anonymous": false,
      "inputs": [
        {
          "indexed": false,
          "internalType": "address",
          "name": "userAddress",
          "type": "address"
        },
        {
          "indexed": false,
          "internalType": "uint256",
          "name": "userId",
          "type": "uint256"
        }
      ],
      "name": "AddressIdConnection",
      "type": "event"
    },
    {
      "anonymous": false,
      "inputs": [
        {
          "indexed": false,
          "internalType": "uint64",
          "name": "version",
          "type": "uint64"
        }
      ],
      "name": "Initialized",
      "type": "event"
    },
    {
      "anonymous": false,
      "inputs": [
        {
          "indexed": true,
          "internalType": "address",
          "name": "previousOwner",
          "type": "address"
        },
        {
          "indexed": true,
          "internalType": "address",
          "name": "newOwner",
          "type": "address"
        }
      ],
      "name": "OwnershipTransferStarted",
      "type": "event"
    },
    {
      "anonymous": false,
      "inputs": [
        {
          "indexed": true,
          "internalType": "address",
          "name": "previousOwner",
          "type": "address"
        },
        {
          "indexed": true,
          "internalType": "address",
          "name": "newOwner",
          "type": "address"
        }
      ],
      "name": "OwnershipTransferred",
      "type": "event"
    },
    {
      "anonymous": false,
      "inputs": [
        {
          "indexed": false,
          "internalType": "uint64",
          "name": "requestId",
          "type": "uint64"
        }
      ],
      "name": "RequestRegistered",
      "type": "event"
    },
    {
      "anonymous": false,
      "inputs": [
        {
          "indexed": false,
          "internalType": "address",
          "name": "userAddress",
          "type": "address"
        },
        {
          "components": [
            {
              "internalType": "uint64",
              "name": "requestId",
              "type": "uint64"
            },
            {
              "internalType": "uint256[]",
              "name": "inputs",
              "type": "uint256[]"
            },
            {
              "internalType": "uint256[2]",
              "name": "a",
              "type": "uint256[2]"
            },
            {
              "internalType": "uint256[2][2]",
              "name": "b",
              "type": "uint256[2][2]"
            },
            {
              "internalType": "uint256[2]",
              "name": "c",
              "type": "uint256[2]"
            }
          ],
          "indexed": false,
          "internalType": "struct IScenarioVerifier.ZKP[]",
          "name": "zkps",
          "type": "tuple[]"
        }
      ],
      "name": "SubmitedAllZKPsForUser",
      "type": "event"
    },
    {
      "anonymous": false,
      "inputs": [
        {
          "indexed": false,
          "internalType": "address",
          "name": "userAddress",
          "type": "address"
        },
        {
          "indexed": false,
          "internalType": "uint64",
          "name": "requestId",
          "type": "uint64"
        }
      ],
      "name": "UserAllowedForRequest",
      "type": "event"
    },
    {
      "anonymous": false,
      "inputs": [
        {
          "indexed": false,
          "internalType": "address",
          "name": "userAddress",
          "type": "address"
        }
      ],
      "name": "UserAllowedForScenario",
      "type": "event"
    },
    {
      "anonymous": false,
      "inputs": [
        {
          "indexed": false,
          "internalType": "uint64",
          "name": "requestId",
          "type": "uint64"
        },
        {
          "indexed": false,
          "internalType": "bytes",
          "name": "data",
          "type": "bytes"
        },
        {
          "indexed": false,
          "internalType": "contract ICircuitValidator",
          "name": "validator",
          "type": "address"
        },
        {
          "indexed": false,
          "internalType": "string",
          "name": "metadata",
          "type": "string"
        }
      ],
      "name": "ZKPRequestSet",
      "type": "event"
    },
    {
      "inputs": [],
      "name": "REQUESTS_RETURN_LIMIT",
      "outputs": [
        {
          "internalType": "uint256",
          "name": "",
          "type": "uint256"
        }
      ],
      "stateMutability": "view",
      "type": "function"
    },
    {
      "inputs": [],
      "name": "acceptOwnership",
      "outputs": [],
      "stateMutability": "nonpayable",
      "type": "function"
    },
    {
      "inputs": [
        {
          "internalType": "address",
          "name": "",
          "type": "address"
        }
      ],
      "name": "addressToId",
      "outputs": [
        {
          "internalType": "uint256",
          "name": "",
          "type": "uint256"
        }
      ],
      "stateMutability": "view",
      "type": "function"
    },
    {
      "inputs": [
        {
          "components": [
            {
              "internalType": "uint64",
              "name": "requestId",
              "type": "uint64"
            },
            {
              "internalType": "uint256[]",
              "name": "inputs",
              "type": "uint256[]"
            },
            {
              "internalType": "uint256[2]",
              "name": "a",
              "type": "uint256[2]"
            },
            {
              "internalType": "uint256[2][2]",
              "name": "b",
              "type": "uint256[2][2]"
            },
            {
              "internalType": "uint256[2]",
              "name": "c",
              "type": "uint256[2]"
            }
          ],
          "internalType": "struct IScenarioVerifier.ZKP[]",
          "name": "zkps",
          "type": "tuple[]"
        }
      ],
      "name": "allowUserForScenario",
      "outputs": [
        {
          "internalType": "bool",
          "name": "",
          "type": "bool"
        }
      ],
      "stateMutability": "nonpayable",
      "type": "function"
    },
    {
      "inputs": [
        {
          "internalType": "address",
          "name": "user",
          "type": "address"
        }
      ],
      "name": "finalizeAllowListScenario",
      "outputs": [
        {
          "internalType": "bool",
          "name": "",
          "type": "bool"
        }
      ],
      "stateMutability": "nonpayable",
      "type": "function"
    },
    {
      "inputs": [
        {
          "internalType": "uint64",
          "name": "requestId",
          "type": "uint64"
        }
      ],
      "name": "getZKPRequest",
      "outputs": [
        {
          "components": [
            {
              "internalType": "string",
              "name": "metadata",
              "type": "string"
            },
            {
              "internalType": "contract ICircuitValidator",
              "name": "validator",
              "type": "address"
            },
            {
              "internalType": "bytes",
              "name": "data",
              "type": "bytes"
            }
          ],
          "internalType": "struct IZKPVerifier.ZKPRequest",
          "name": "",
          "type": "tuple"
        }
      ],
      "stateMutability": "view",
      "type": "function"
    },
    {
      "inputs": [
        {
          "internalType": "uint256",
          "name": "startIndex",
          "type": "uint256"
        },
        {
          "internalType": "uint256",
          "name": "length",
          "type": "uint256"
        }
      ],
      "name": "getZKPRequests",
      "outputs": [
        {
          "components": [
            {
              "internalType": "string",
              "name": "metadata",
              "type": "string"
            },
            {
              "internalType": "contract ICircuitValidator",
              "name": "validator",
              "type": "address"
            },
            {
              "internalType": "bytes",
              "name": "data",
              "type": "bytes"
            }
          ],
          "internalType": "struct IZKPVerifier.ZKPRequest[]",
          "name": "",
          "type": "tuple[]"
        }
      ],
      "stateMutability": "view",
      "type": "function"
    },
    {
      "inputs": [],
      "name": "getZKPRequestsCount",
      "outputs": [
        {
          "internalType": "uint256",
          "name": "",
          "type": "uint256"
        }
      ],
      "stateMutability": "view",
      "type": "function"
    },
    {
      "inputs": [
        {
          "internalType": "uint256",
          "name": "",
          "type": "uint256"
        }
      ],
      "name": "idToAddress",
      "outputs": [
        {
          "internalType": "address",
          "name": "",
          "type": "address"
        }
      ],
      "stateMutability": "view",
      "type": "function"
    },
    {
      "inputs": [
        {
          "internalType": "address",
          "name": "newOwner",
          "type": "address"
        }
      ],
      "name": "initialize",
      "outputs": [],
      "stateMutability": "nonpayable",
      "type": "function"
    },
    {
      "inputs": [
        {
          "internalType": "address",
          "name": "user",
          "type": "address"
        }
      ],
      "name": "isAllowedForScenario",
      "outputs": [
        {
          "internalType": "bool",
          "name": "",
          "type": "bool"
        }
      ],
      "stateMutability": "view",
      "type": "function"
    },
    {
      "inputs": [
        {
          "internalType": "address",
          "name": "sender",
          "type": "address"
        },
        {
          "internalType": "uint64",
          "name": "requestID",
          "type": "uint64"
        }
      ],
      "name": "isProofSubmitted",
      "outputs": [
        {
          "internalType": "bool",
          "name": "",
          "type": "bool"
        }
      ],
      "stateMutability": "view",
      "type": "function"
    },
    {
      "inputs": [
        {
          "internalType": "uint64",
          "name": "",
          "type": "uint64"
        }
      ],
      "name": "isRuleIdRegistered",
      "outputs": [
        {
          "internalType": "bool",
          "name": "",
          "type": "bool"
        }
      ],
      "stateMutability": "view",
      "type": "function"
    },
    {
      "inputs": [],
      "name": "owner",
      "outputs": [
        {
          "internalType": "address",
          "name": "",
          "type": "address"
        }
      ],
      "stateMutability": "view",
      "type": "function"
    },
    {
      "inputs": [],
      "name": "pendingOwner",
      "outputs": [
        {
          "internalType": "address",
          "name": "",
          "type": "address"
        }
      ],
      "stateMutability": "view",
      "type": "function"
    },
    {
      "inputs": [
        {
          "internalType": "uint64",
          "name": "",
          "type": "uint64"
        },
        {
          "internalType": "address",
          "name": "",
          "type": "address"
        }
      ],
      "name": "queryRequestWhitelist",
      "outputs": [
        {
          "internalType": "bool",
          "name": "",
          "type": "bool"
        }
      ],
      "stateMutability": "view",
      "type": "function"
    },
    {
      "inputs": [
        {
          "internalType": "uint256",
          "name": "",
          "type": "uint256"
        }
      ],
      "name": "registeredRuleIDs",
      "outputs": [
        {
          "internalType": "uint64",
          "name": "",
          "type": "uint64"
        }
      ],
      "stateMutability": "view",
      "type": "function"
    },
    {
      "inputs": [],
      "name": "renounceOwnership",
      "outputs": [],
      "stateMutability": "nonpayable",
      "type": "function"
    },
    {
      "inputs": [
        {
          "internalType": "uint64",
          "name": "requestId",
          "type": "uint64"
        }
      ],
      "name": "requestIdExists",
      "outputs": [
        {
          "internalType": "bool",
          "name": "",
          "type": "bool"
        }
      ],
      "stateMutability": "view",
      "type": "function"
    },
    {
      "inputs": [
        {
          "internalType": "address",
          "name": "",
          "type": "address"
        }
      ],
      "name": "scenarioAllowList",
      "outputs": [
        {
          "internalType": "bool",
          "name": "",
          "type": "bool"
        }
      ],
      "stateMutability": "view",
      "type": "function"
    },
    {
      "inputs": [
        {
          "internalType": "uint64",
          "name": "requestId",
          "type": "uint64"
        },
        {
          "components": [
            {
              "internalType": "string",
              "name": "metadata",
              "type": "string"
            },
            {
              "internalType": "contract ICircuitValidator",
              "name": "validator",
              "type": "address"
            },
            {
              "internalType": "bytes",
              "name": "data",
              "type": "bytes"
            }
          ],
          "internalType": "struct IZKPVerifier.ZKPRequest",
          "name": "request",
          "type": "tuple"
        }
      ],
      "name": "setNexeraZKPRequest",
      "outputs": [],
      "stateMutability": "nonpayable",
      "type": "function"
    },
    {
      "inputs": [
        {
          "internalType": "uint64",
          "name": "requestId",
          "type": "uint64"
        },
        {
          "components": [
            {
              "internalType": "string",
              "name": "metadata",
              "type": "string"
            },
            {
              "internalType": "contract ICircuitValidator",
              "name": "validator",
              "type": "address"
            },
            {
              "internalType": "bytes",
              "name": "data",
              "type": "bytes"
            }
          ],
          "internalType": "struct IZKPVerifier.ZKPRequest",
          "name": "request",
          "type": "tuple"
        }
      ],
      "name": "setZKPRequest",
      "outputs": [],
      "stateMutability": "nonpayable",
      "type": "function"
    },
    {
      "inputs": [
        {
          "internalType": "uint64",
          "name": "requestId",
          "type": "uint64"
        },
        {
          "internalType": "uint256[]",
          "name": "inputs",
          "type": "uint256[]"
        },
        {
          "internalType": "uint256[2]",
          "name": "a",
          "type": "uint256[2]"
        },
        {
          "internalType": "uint256[2][2]",
          "name": "b",
          "type": "uint256[2][2]"
        },
        {
          "internalType": "uint256[2]",
          "name": "c",
          "type": "uint256[2]"
        }
      ],
      "name": "submitZKPResponse",
      "outputs": [],
      "stateMutability": "nonpayable",
      "type": "function"
    },
    {
      "inputs": [
        {
          "internalType": "address",
          "name": "newOwner",
          "type": "address"
        }
      ],
      "name": "transferOwnership",
      "outputs": [],
      "stateMutability": "nonpayable",
      "type": "function"
    }
  ],
  "transactionHash": "0xcdfdaf603b0f24f141e46f731be8c20eadc4891bd6eb7291f4c419bc460999ed",
  "args": [],
  "numDeployments": 1,
  "solcInputHash": "a0a5c08d8a573c8b013e1a01f6f1b520",
  "bytecode": "0x608080604052346100b8577ff0c57e16840df040f15088dc2f81fe391c3923bec73e23a9662efc9c229c6a009081549060ff8260401c166100a957506001600160401b036002600160401b031982821601610064575b6040516121c790816100be8239f35b6001600160401b031990911681179091556040519081527fc7f505b2f371ae2175ee4913f4499e1f2633a7b5936321eed1cdaeb6115181d290602090a1388080610055565b63f92ee8a960e01b8152600490fd5b600080fdfe6080604052600436101561001257600080fd5b60003560e01c806315be5190146101925780631905e7b11461018d578063197bf195146101885780632a2d0c47146101835780632e01bb6f1461017e578063398cfb76146101745780635f9e60d71461017957806360fc1cb5146101745780636508e1b41461016f5780636d76b3631461016a578063715018a61461016557806371941da51461016057806379ba50971461015b5780638da5cb5b146101565780639f5223e014610151578063a9b9e3e11461014c578063ab7bcfb714610147578063b68967e214610142578063c4d66de81461013d578063c76d084514610138578063cb0e0d7d14610133578063e30c39781461012e578063f2fde38b146101295763f82ddf0a1461012457600080fd5b610f6a565b610edf565b610ea9565b610e6c565b610dcb565b610c9b565b610b78565b610b51565b610b20565b6109c2565b61094e565b6108f9565b6108b8565b61078d565b610730565b610705565b61043a565b610565565b6103dd565b610398565b610355565b6102ef565b6101cc565b9181601f840112156101c7578235916001600160401b0383116101c7576020808501948460051b0101116101c757565b600080fd5b346101c7576020806003193601126101c7576001600160401b03906004358281116101c7576101ff903690600401610197565b9160005b838110610261576040517fefbe0f7f95f99f3446b18c397ba10fec2af0a6ef272d84266ccb64303fd469ef908061023c87873384612006565b0390a161025d61024b33611eda565b60405190151581529081906020820190565b0390f35b61026c818585611fbb565b35906102778261030c565b610282818686611fbb565b8381013590601e19813603018212156101c757018035908782116101c7578401928160051b360384136101c7576001936102e99260406102c3868b8b611fbb565b019060806102d2878c8c611fbb565b01926101006102e2888d8d611fbb565b0194611507565b01610203565b346101c75760003660031901126101c75760206040516103e88152f35b6001600160401b038116036101c757565b6001600160401b03166000527f512d18c55869273fec77e70d8a8586e3fb133e90f1db24c6bcf4ff3506ef6a01602052604060002090565b346101c75760203660031901126101c7576001600160401b0360043561037a8161030c565b166000526001602052602060ff604060002054166040519015158152f35b346101c75760203660031901126101c7576004356000526004602052602060018060a01b0360406000205416604051908152f35b6001600160a01b038116036101c757565b346101c75760403660031901126101c757602060ff61042e600435610401816103cc565b610416602435916104118361030c565b6106cc565b906001600160401b0316600052602052604060002090565b54166040519015158152f35b346101c75760203660031901126101c757600435610457816103cc565b60018060a01b03166000526003602052602060ff604060002054166040519015158152f35b60005b83811061048f5750506000910152565b818101518382015260200161047f565b906020916104b88151809281855285808601910161047c565b601f01601f1916010190565b6105009160406104dd835160608452606084019061049f565b9260018060a01b036020820151166020840152015190604081840391015261049f565b90565b602080820190808352835180925260408301928160408460051b8301019501936000915b8483106105375750505050505090565b9091929394958480610555600193603f198682030187528a516104c4565b9801930193019194939290610527565b346101c75760403660031901126101c75760043560243560008051602061211283398151915254908015610687576103e8811161064a576105b1906105ab838510611913565b8361195f565b90808211610642575b506105cd6105c883836118a2565b6118af565b91805b8281106105e5576040518061025d8682610503565b8061063761061361060e6105fb61063d95610828565b90546001600160401b039160031b1c1690565b61031d565b61062661062086856118a2565b9161161e565b61063082896118ff565b52866118ff565b50611833565b6105d0565b9050386105ba565b60405162461bcd60e51b815260206004820152601560248201527413195b99dd1a081b1a5b5a5d08195e18d959591959605a1b6044820152606490fd5b60405162461bcd60e51b815260206004820152601f60248201527f4c656e6774682073686f756c642062652067726561746572207468616e2030006044820152606490fd5b6001600160a01b031660009081527f512d18c55869273fec77e70d8a8586e3fb133e90f1db24c6bcf4ff3506ef6a006020526040902090565b346101c75760003660031901126101c757602060008051602061211283398151915254604051908152f35b346101c75760403660031901126101c757602060ff61042e6004356107548161030c565b6001600160401b0360243591610769836103cc565b166000526002845260406000209060018060a01b0316600052602052604060002090565b346101c75760008060031936011261080f576107a76119da565b60008051602061217283398151915280546001600160a01b03199081169091556000805160206121328339815191528054918216905581906001600160a01b03167f8be0079c531659141344cd1fd0a4f28419497f9722a3daafe3b4186f6b6457e08280a380f35b80fd5b634e487b7160e01b600052603260045260246000fd5b9060008051602061211283398151915280548310156108745760005260188260021c7f1fe3fe50d7f73453bbdfdc1f93126676827407269733e888e486d0fbdf4a2c31019260031b1690565b610812565b90600054821015610874576000805260188260021c7f290decd9548b62a8d60345a988386fc84ba6bc95484008f6362f93160ef3e563019260031b1690565b346101c75760203660031901126101c7576004356000548110156101c7576001600160401b036108e9602092610879565b9190546040519260031b1c168152f35b346101c75760003660031901126101c75760008051602061217283398151915254336001600160a01b0390911603610936576109343361196c565b005b60405163118cdaa760e01b8152336004820152602490fd5b346101c75760003660031901126101c757600080516020612132833981519152546040516001600160a01b039091168152602090f35b906003196040818401126101c75760043561099e8161030c565b92602435916001600160401b0383116101c757826060920301126101c75760040190565b346101c7576109d036610984565b906109d96119da565b6109e28161031d565b6109ec838061167b565b6001600160401b038195929511610b1b57610a1181610a0b85546113b0565b856116ad565b6000601f8211600114610aa15760029282610a919593610a889361093499600092610a96575b50508160011b916000199060031b1c19161783555b610a7e610a5b60208301611701565b6001850180546001600160a01b0319166001600160a01b03909216919091179055565b604081019061167b565b9290910161170b565b6117d2565b013590503880610a37565b601f19821690610ab685600052602060002090565b91815b818110610b03575083610a88936109349960029794610a91999760019510610ae9575b505050811b018355610a4c565b0135600019600384901b60f8161c19169055388080610adc565b9192602060018192868c013581550194019201610ab9565b611198565b346101c75760203660031901126101c7576020610b47600435610b42816103cc565b611eda565b6040519015158152f35b346101c75760203660031901126101c7576020610b47600435610b738161030c565b611847565b346101c7576101403660031901126101c757600435610b968161030c565b6024356001600160401b0381116101c757610bb5903690600401610197565b919091366084116101c75736610104116101c75736610144116101c757610c30926000610be18461031d565b60018101546001600160a01b0316610bfa81151561113b565b610c0e81610c0936888861121c565b611b7c565b60405180809881946378bbd34f60e11b83526002339101898960048601611480565b03915afa918215610c965761093494610c6d93610c73575b50610c66610c5985610416336106cc565b805460ff19166001179055565b369161121c565b90611dfd565b610c8f903d806000833e610c8781836111e4565b810190611285565b5038610c48565b6114fb565b346101c75760203660031901126101c757600435610cb8816103cc565b60008051602061215283398151915254906001600160401b0360ff8360401c1615921680159081610dc3575b6001149081610db9575b159081610db0575b50610d9e57600080516020612152833981519152805467ffffffffffffffff19166001179055610d2a9082610d795761196c565b610d3057005b600080516020612152833981519152805460ff60401b19169055604051600181527fc7f505b2f371ae2175ee4913f4499e1f2633a7b5936321eed1cdaeb6115181d290602090a1005b600080516020612152833981519152805460ff60401b1916600160401b17905561196c565b60405163f92ee8a960e01b8152600490fd5b90501538610cf6565b303b159150610cee565b839150610ce4565b346101c75760203660031901126101c757600435610de88161030c565b610df06115fe565b50610dfa81611847565b15610e2757610e13610e0e61025d9261031d565b61161e565b6040519182916020835260208301906104c4565b60405162461bcd60e51b815260206004820152601860248201527f7265717565737420696420646f65736e277420657869737400000000000000006044820152606490fd5b346101c75760203660031901126101c757600435610e89816103cc565b60018060a01b031660005260056020526020604060002054604051908152f35b346101c75760003660031901126101c757600080516020612172833981519152546040516001600160a01b039091168152602090f35b346101c75760203660031901126101c757600435610efc816103cc565b610f046119da565b60008051602061217283398151915280546001600160a01b0319166001600160a01b03928316908117909155600080516020612132833981519152549091167f38d16b8cac22d99fc7c124b9cd0de2d3fa1faef420bfe791d8c362d765e22700600080a3005b346101c757610f7836610984565b90610f816119da565b610f896119da565b610f928161031d565b610f9c838061167b565b6001600160401b038195929511610b1b57610fbb81610a0b85546113b0565b6000601f82116001146110a25761107a92827febf5fc5d525575febff148871346e1458de02c705c900ba0bc9b5361d5eba08a959361108f9361093499600092611097575b50508160011b916000199060031b1c19161783555b611081611072602083019461104f61102c87611701565b6001830180546001600160a01b0319166001600160a01b03909216919091179055565b61106360026040860192610a88848861167b565b61106c896117d2565b8361167b565b959094611701565b918061167b565b916040519586958987611a1c565b0390a1611a62565b013590503880611000565b601f198216906110b785600052602060002090565b91815b81811061112357508361108f936109349961107a97947febf5fc5d525575febff148871346e1458de02c705c900ba0bc9b5361d5eba08a999760019510611109575b505050811b018355611015565b0135600019600384901b60f8161c191690553880806110fc565b9192602060018192868c0135815501940192016110ba565b1561114257565b60405162461bcd60e51b815260206004820152602860248201527f76616c696461746f72206973206e6f742073657420666f7220746869732072656044820152671c5d595cdd081a5960c21b6064820152608490fd5b634e487b7160e01b600052604160045260246000fd5b604081019081106001600160401b03821117610b1b57604052565b606081019081106001600160401b03821117610b1b57604052565b90601f801991011681019081106001600160401b03821117610b1b57604052565b6001600160401b038111610b1b5760051b60200190565b929161122782611205565b9161123560405193846111e4565b829481845260208094019160051b81019283116101c757905b82821061125b5750505050565b8135815290830190830161124e565b6001600160401b038111610b1b57601f01601f191660200190565b9060209081838203126101c75782516001600160401b03938482116101c757019080601f830112156101c75781516112bc81611205565b9460406112cb815197886111e4565b828752858088019360051b860101948486116101c757868101935b8685106112f857505050505050505090565b84518481116101c75782019083601f1983890301126101c75783519061131d826111ae565b898301518681116101c75783019188603f840112156101c7578a8301516113438161126a565b94611350885196876111e4565b8186528a8883870101116101c7578561137389938f9897858a809a01910161047c565b83520151838201528152019401936112e6565b81835290916001600160fb1b0383116101c75760209260051b809284830137010190565b60409137565b90600182811c921680156113e0575b60208310146113ca57565b634e487b7160e01b600052602260045260246000fd5b91607f16916113bf565b90600092918054916113fb836113b0565b91828252600193848116908160001461145d575060011461141d575b50505050565b90919394506000526020928360002092846000945b838610611449575050505001019038808080611417565b805485870183015294019385908201611432565b9294505050602093945060ff191683830152151560051b01019038808080611417565b92919061149891959495610160808652850191611386565b906040806044602086013760846000606086015b600282106114e657505050916114d6916101409361010460e08701378482036101208601526113ea565b6001600160a01b03909416910152565b838082818660019537019301910190916114ac565b6040513d6000823e3d90fd5b9394909192946115168561031d565b9560019660018060a01b0388820154169361153285151561113b565b61154185610c09368a8a61121c565b6040908151998a956378bbd34f60e11b875261016060048801528361156b61016489018c8c611386565b9660248901376000606488015b600282106115db5750505050600095936002869485946115aa9460e487013784830360031901610124860152016113ea565b3361014483015203915afa918215610c96576115d994610c6d93610c735750610c66610c5985610416336106cc565b565b85809798995081818587989994979596973701930191018c979695949392611578565b6040519061160b826111c9565b6060604083828152600060208201520152565b9060026040805161162e816111c9565b6116778195835161164a8161164381856113ea565b03826111e4565b835260018101546001600160a01b031660208401528351948591611670918391016113ea565b03846111e4565b0152565b903590601e19813603018212156101c757018035906001600160401b0382116101c7576020019181360383136101c757565b90601f81116116bb57505050565b600091825260208220906020601f850160051c830194106116f7575b601f0160051c01915b8281106116ec57505050565b8181556001016116e0565b90925082906116d7565b35610500816103cc565b9092916001600160401b038111610b1b576117308161172a84546113b0565b846116ad565b6000601f821160011461176a578192939460009261175f575b50508160011b916000199060031b1c1916179055565b013590503880611749565b601f1982169461177f84600052602060002090565b91805b8781106117ba5750836001959697106117a0575b505050811b019055565b0135600019600384901b60f8161c19169055388080611796565b90926020600181928686013581550194019101611782565b6000805160206121128339815191528054600160401b811015610b1b576117fe91600182019055610828565b819291549060031b916001600160401b03809116831b921b1916179055565b634e487b7160e01b600052601160045260246000fd5b60001981146118425760010190565b61181d565b600080516020612112833981519152549060005b82811061186a57505050600090565b61187381610828565b90546001600160401b03908185169260031b1c161461189a5761189590611833565b61185b565b505050600190565b9190820391821161184257565b906118b982611205565b6118c660405191826111e4565b82815280926118d7601f1991611205565b019060005b8281106118e857505050565b6020906118f36115fe565b828285010152016118dc565b80518210156108745760209160051b010190565b1561191a57565b60405162461bcd60e51b815260206004820152601960248201527f537461727420696e646578206f7574206f6620626f756e6473000000000000006044820152606490fd5b9190820180921161184257565b60008051602061217283398151915280546001600160a01b031990811690915560008051602061213283398151915280549182166001600160a01b0393841690811790915591167f8be0079c531659141344cd1fd0a4f28419497f9722a3daafe3b4186f6b6457e0600080a3565b600080516020612132833981519152546001600160a01b0316330361093657565b908060209392818452848401376000828201840152601f01601f1916010190565b91610500969495936001600160401b03611a44931684526080602085015260808401916119fb565b6001600160a01b0390941660408201528084036060909101526119fb565b6001600160401b03808216916000838152600160205260ff60408220541615611a8b5750505050565b805490600160401b821015610b1b577f56b7ddf97528e633ab570995fc0cf2e93f6eb557b29e5d715965018a34f4295e94611b1394611ad1846001604096018555610879565b819291549060031b9184831b921b19161790558152600160205220600160ff19825416179055604051918291829190916001600160401b036020820193169052565b0390a138808080611417565b15611b2657565b60405162461bcd60e51b815260206004820152602860248201527f6164647265737320696e2070726f6f66206973206e6f7420612073656e646572604482015267206164647265737360c01b6064820152608490fd5b6040519063b16a394f60e01b82526020600483015260096024830152686368616c6c656e676560b81b604483015260208260648160018060a01b038097165afa918215610c9657600092611beb575b50611bdd6115d99392611be3926118ff565b51611c20565b163314611b1f565b90916020823d8211611c18575b81611c05602093836111e4565b8101031261080f57505190611bdd611bcb565b3d9150611bf8565b6001600160a01b0381168103611d5357611d4c816105009260081c9060081b907eff000000ff000000ff000000ff000000ff000000ff000000ff000000ff00007fff000000ff000000ff000000ff000000ff000000ff000000ff000000ff0000007dff000000ff000000ff000000ff000000ff000000ff000000ff000000ff0084167cff000000ff000000ff000000ff000000ff000000ff000000ff000000ff84161760101b931691161760101c177bffffffff00000000ffffffff00000000ffffffff00000000ffffffff7fffffffff00000000ffffffff00000000ffffffff00000000ffffffff000000008260201b169160201c161777ffffffffffffffff0000000000000000ffffffffffffffff80198260401b169160401c16178060801b9060801c17611de4565b6014015190565b60405162461bcd60e51b815260206004820152605d60248201527f676976656e2075696e74323536206973206e6f74206120726570726573656e7460448201527f6174696f6e206f6620616e20616464726573732c203132206d6f73742073696760648201527f6e69666963616e742062797465732073686f756c64206265207a65726f000000608482015260a490fd5b9060405191611df2836111ae565b602083526020830152565b90805160011015610874577f681ea469fc50f02bc3788c40f25e78e5eaa619484685a28003af83fb0dc8dd6791611ecc610c596001600160401b03604080950151937f646b8bd6cf28645be11999db4a2cdbe4fdd61ea8f95a3877ffc1258f903be3c286600096338852600560205280828920558088526004602052611ea133838a209060018060a01b03166bffffffffffffffffffffffff60a01b825416179055565b8151903382526020820152a11680845260026020908152938590203360009081529452604090932090565b8151903382526020820152a1565b6001908160009081549082915b808310611f5c575b5050506001600160a01b0382168152600360205260409020805460ff191660ff841515161790557f14e9c7a267790ab46f2189d66cb068dbf65a27e7f844cb8aded907134d36467490611f56906040516001600160a01b0390911681529081906020820190565b0390a190565b909194506001600160401b03611f7186610879565b90549060031b1c168352600260205260ff611fa185604086209060018060a01b0316600052602052604060002090565b541694858015611fb5575082019190611ee7565b50611eef565b91908110156108745760051b8101359061013e19813603018212156101c7570190565b6000915b60028310611fef57505050565b600190604081818581943701920192019190611fe2565b92906040938481019160018060a01b031681528260209286848401525260608101600590606085831b84010196866000945b87861061204b5750505050505050505090565b909192939495969798605f19828203018552893561013e19843603018112156101c757830180359161207c8361030c565b6001600160401b03809316815289820135601e19833603018112156101c7578201908a823592019382116101c75781891b360384136101c7576120fe8b936120d260019686956101408088880152860191611386565b926120e18a82018b84016113aa565b6120f16080808301908401611fde565b61010080910191016113aa565b9b0195019601949397969592919061203856fe512d18c55869273fec77e70d8a8586e3fb133e90f1db24c6bcf4ff3506ef6a029016d09d72d40fdae2fd8ceac6b6234c7706214fd39c1cd1e609a0528c199300f0c57e16840df040f15088dc2f81fe391c3923bec73e23a9662efc9c229c6a00237e158222e3e6968b72b9db0d8043aacf074ad9f650f0d1606b4d82ee432c00a264697066735822122091778593798dd380a147893f6a86d35eebcc4dd6429991afb28e88e3d9d7cdb564736f6c63430008140033",
  "devdoc": {
    "errors": {
      "InvalidInitialization()": [
        {
          "details": "The contract is already initialized."
        }
      ],
      "NotInitializing()": [
        {
          "details": "The contract is not initializing."
        }
      ],
      "OwnableInvalidOwner(address)": [
        {
          "details": "The owner is not a valid owner account. (eg. `address(0)`)"
        }
      ],
      "OwnableUnauthorizedAccount(address)": [
        {
          "details": "The caller account is not authorized to perform an operation."
        }
      ]
    },
    "events": {
      "AddressIdConnection(address,uint256)": {
        "details": "Event emitted when an address is associated with a Polygon ID"
      },
      "Initialized(uint64)": {
        "details": "Triggered when the contract has been initialized or reinitialized."
      },
      "RequestRegistered(uint64)": {
        "details": "Event emitted when a ZKPRequest is registered in the verifier"
      },
      "SubmitedAllZKPsForUser(address,(uint64,uint256[],uint256[2],uint256[2][2],uint256[2])[])": {
        "details": "Event emitted when all ZKPs for a user are submitted"
      },
      "UserAllowedForRequest(address,uint64)": {
        "details": "Event emitted when a user address is allowed for a request ID"
      },
      "UserAllowedForScenario(address)": {
        "details": "Event emitted when an address is allowed for the scenario verifier"
      },
      "ZKPRequestSet(uint64,bytes,address,string)": {
        "details": "Emitted when a ZKP request is set.",
        "params": {
          "data": "The data associated with the ZKP request.",
          "metadata": "Metadata associated with the request.",
          "requestId": "The ID of the ZKP request.",
          "validator": "The circuit validator for the ZKP request."
        }
      }
    },
    "kind": "dev",
    "methods": {
      "acceptOwnership()": {
        "details": "The new owner accepts the ownership transfer."
      },
      "allowUserForScenario((uint64,uint256[],uint256[2],uint256[2][2],uint256[2])[])": {
        "params": {
          "zkps": "Array of ZKPs to submit"
        },
        "returns": {
          "_0": "Boolean indicating the success of the operation"
        }
      },
      "finalizeAllowListScenario(address)": {
        "details": "Once the user is allowed for all rules, call this function to finalize (this is more gas efficient than iterating over rules on every submission)",
        "params": {
          "user": "The address of the user to check"
        },
        "returns": {
          "_0": "isUserWhitelisted True if the user is allowed for all rules"
        }
      },
      "initialize(address)": {
        "details": "Initialize proxied contract with owner",
        "params": {
          "newOwner": "The address of the thing owner"
        }
      },
      "isAllowedForScenario(address)": {
        "params": {
          "user": "The address of the user to check"
        },
        "returns": {
          "_0": "Boolean indicating if the user is allowed for the scenario"
        }
      },
      "owner()": {
        "details": "Returns the address of the current owner."
      },
      "pendingOwner()": {
        "details": "Returns the address of the pending owner."
      },
      "renounceOwnership()": {
        "details": "Leaves the contract without owner. It will not be possible to call `onlyOwner` functions. Can only be called by the current owner. NOTE: Renouncing ownership will leave the contract without an owner, thereby disabling any functionality that is only available to the owner."
      },
      "setNexeraZKPRequest(uint64,(string,address,bytes))": {
        "params": {
          "request": "The ZKP request data.",
          "requestId": "The ID of the request to be set."
        }
      },
      "transferOwnership(address)": {
        "details": "Starts the ownership transfer of the contract to a new account. Replaces the pending transfer if there is one. Can only be called by the current owner."
      }
    },
    "title": "ScenarioVerifier",
    "version": 1
  },
  "userdoc": {
    "kind": "user",
    "methods": {
      "allowUserForScenario((uint64,uint256[],uint256[2],uint256[2][2],uint256[2])[])": {
        "notice": "Submits all ZKPs and allowlists a user in one call"
      },
      "finalizeAllowListScenario(address)": {
        "notice": "Finalizes the whitelisting of a user for all rules"
      },
      "isAllowedForScenario(address)": {
        "notice": "Checks if a user is allowed for the scenario"
      },
      "setNexeraZKPRequest(uint64,(string,address,bytes))": {
        "notice": "Sets a Nexera ZKP request and emits an event."
      }
    },
    "notice": "This contract manages rules for a scenario using ZKP requests, including setting a request for a rule and allowing users who submit the right ZKPs",
    "version": 1
  },
  "storageLayout": {
    "storage": [
      {
        "astId": 8363,
        "contract": "contracts/zkpVerifiers/ScenarioVerifier.sol:ScenarioVerifier",
        "label": "registeredRuleIDs",
        "offset": 0,
        "slot": "0",
        "type": "t_array(t_uint64)dyn_storage"
      },
      {
        "astId": 8367,
        "contract": "contracts/zkpVerifiers/ScenarioVerifier.sol:ScenarioVerifier",
        "label": "isRuleIdRegistered",
        "offset": 0,
        "slot": "1",
        "type": "t_mapping(t_uint64,t_bool)"
      },
      {
        "astId": 8373,
        "contract": "contracts/zkpVerifiers/ScenarioVerifier.sol:ScenarioVerifier",
        "label": "queryRequestWhitelist",
        "offset": 0,
        "slot": "2",
        "type": "t_mapping(t_uint64,t_mapping(t_address,t_bool))"
      },
      {
        "astId": 8377,
        "contract": "contracts/zkpVerifiers/ScenarioVerifier.sol:ScenarioVerifier",
        "label": "scenarioAllowList",
        "offset": 0,
        "slot": "3",
        "type": "t_mapping(t_address,t_bool)"
      },
      {
        "astId": 8381,
        "contract": "contracts/zkpVerifiers/ScenarioVerifier.sol:ScenarioVerifier",
        "label": "idToAddress",
        "offset": 0,
        "slot": "4",
        "type": "t_mapping(t_uint256,t_address)"
      },
      {
        "astId": 8385,
        "contract": "contracts/zkpVerifiers/ScenarioVerifier.sol:ScenarioVerifier",
        "label": "addressToId",
        "offset": 0,
        "slot": "5",
        "type": "t_mapping(t_address,t_uint256)"
      }
    ],
    "types": {
      "t_address": {
        "encoding": "inplace",
        "label": "address",
        "numberOfBytes": "20"
      },
      "t_array(t_uint64)dyn_storage": {
        "base": "t_uint64",
        "encoding": "dynamic_array",
        "label": "uint64[]",
        "numberOfBytes": "32"
      },
      "t_bool": {
        "encoding": "inplace",
        "label": "bool",
        "numberOfBytes": "1"
      },
      "t_mapping(t_address,t_bool)": {
        "encoding": "mapping",
        "key": "t_address",
        "label": "mapping(address => bool)",
        "numberOfBytes": "32",
        "value": "t_bool"
      },
      "t_mapping(t_address,t_uint256)": {
        "encoding": "mapping",
        "key": "t_address",
        "label": "mapping(address => uint256)",
        "numberOfBytes": "32",
        "value": "t_uint256"
      },
      "t_mapping(t_uint256,t_address)": {
        "encoding": "mapping",
        "key": "t_uint256",
        "label": "mapping(uint256 => address)",
        "numberOfBytes": "32",
        "value": "t_address"
      },
      "t_mapping(t_uint64,t_bool)": {
        "encoding": "mapping",
        "key": "t_uint64",
        "label": "mapping(uint64 => bool)",
        "numberOfBytes": "32",
        "value": "t_bool"
      },
      "t_mapping(t_uint64,t_mapping(t_address,t_bool))": {
        "encoding": "mapping",
        "key": "t_uint64",
        "label": "mapping(uint64 => mapping(address => bool))",
        "numberOfBytes": "32",
        "value": "t_mapping(t_address,t_bool)"
      },
      "t_uint256": {
        "encoding": "inplace",
        "label": "uint256",
        "numberOfBytes": "32"
      },
      "t_uint64": {
        "encoding": "inplace",
        "label": "uint64",
        "numberOfBytes": "8"
      }
    }
  }
}