{
  "address": "0x2264C14067928101633801f4c9502CF9f2c2C72C",
  "abi": [
    {
      "inputs": [],
      "name": "InvalidInitialization",
      "type": "error"
    },
    {
      "inputs": [],
      "name": "NotInitializing",
      "type": "error"
    },
    {
      "inputs": [
        {
          "internalType": "address",
          "name": "owner",
          "type": "address"
        }
      ],
      "name": "OwnableInvalidOwner",
      "type": "error"
    },
    {
      "inputs": [
        {
          "internalType": "address",
          "name": "account",
          "type": "address"
        }
      ],
      "name": "OwnableUnauthorizedAccount",
      "type": "error"
    },
    {
      "anonymous": false,
      "inputs": [
        {
          "indexed": false,
          "internalType": "uint64",
          "name": "version",
          "type": "uint64"
        }
      ],
      "name": "Initialized",
      "type": "event"
    },
    {
      "anonymous": false,
      "inputs": [
        {
          "indexed": true,
          "internalType": "address",
          "name": "previousOwner",
          "type": "address"
        },
        {
          "indexed": true,
          "internalType": "address",
          "name": "newOwner",
          "type": "address"
        }
      ],
      "name": "OwnershipTransferStarted",
      "type": "event"
    },
    {
      "anonymous": false,
      "inputs": [
        {
          "indexed": true,
          "internalType": "address",
          "name": "previousOwner",
          "type": "address"
        },
        {
          "indexed": true,
          "internalType": "address",
          "name": "newOwner",
          "type": "address"
        }
      ],
      "name": "OwnershipTransferred",
      "type": "event"
    },
    {
      "inputs": [],
      "name": "VERSION",
      "outputs": [
        {
          "internalType": "string",
          "name": "",
          "type": "string"
        }
      ],
      "stateMutability": "view",
      "type": "function"
    },
    {
      "inputs": [],
      "name": "acceptOwnership",
      "outputs": [],
      "stateMutability": "nonpayable",
      "type": "function"
    },
    {
      "inputs": [],
      "name": "getGISTRootExpirationTimeout",
      "outputs": [
        {
          "internalType": "uint256",
          "name": "",
          "type": "uint256"
        }
      ],
      "stateMutability": "view",
      "type": "function"
    },
    {
      "inputs": [],
      "name": "getProofExpirationTimeout",
      "outputs": [
        {
          "internalType": "uint256",
          "name": "",
          "type": "uint256"
        }
      ],
      "stateMutability": "view",
      "type": "function"
    },
    {
      "inputs": [],
      "name": "getRevocationStateExpirationTimeout",
      "outputs": [
        {
          "internalType": "uint256",
          "name": "",
          "type": "uint256"
        }
      ],
      "stateMutability": "view",
      "type": "function"
    },
    {
      "inputs": [],
      "name": "getStateAddress",
      "outputs": [
        {
          "internalType": "address",
          "name": "",
          "type": "address"
        }
      ],
      "stateMutability": "view",
      "type": "function"
    },
    {
      "inputs": [],
      "name": "getSupportedCircuitIds",
      "outputs": [
        {
          "internalType": "string[]",
          "name": "ids",
          "type": "string[]"
        }
      ],
      "stateMutability": "view",
      "type": "function"
    },
    {
      "inputs": [
        {
          "internalType": "address",
          "name": "_verifierContractAddr",
          "type": "address"
        },
        {
          "internalType": "address",
          "name": "_stateContractAddr",
          "type": "address"
        }
      ],
      "name": "initialize",
      "outputs": [],
      "stateMutability": "nonpayable",
      "type": "function"
    },
    {
      "inputs": [
        {
          "internalType": "string",
          "name": "name",
          "type": "string"
        }
      ],
      "name": "inputIndexOf",
      "outputs": [
        {
          "internalType": "uint256",
          "name": "",
          "type": "uint256"
        }
      ],
      "stateMutability": "view",
      "type": "function"
    },
    {
      "inputs": [],
      "name": "owner",
      "outputs": [
        {
          "internalType": "address",
          "name": "",
          "type": "address"
        }
      ],
      "stateMutability": "view",
      "type": "function"
    },
    {
      "inputs": [
        {
          "internalType": "uint256[]",
          "name": "inputs",
          "type": "uint256[]"
        }
      ],
      "name": "parsePubSignals",
      "outputs": [
        {
          "components": [
            {
              "internalType": "uint256",
              "name": "merklized",
              "type": "uint256"
            },
            {
              "internalType": "uint256",
              "name": "userID",
              "type": "uint256"
            },
            {
              "internalType": "uint256",
              "name": "issuerState",
              "type": "uint256"
            },
            {
              "internalType": "uint256",
              "name": "circuitQueryHash",
              "type": "uint256"
            },
            {
              "internalType": "uint256",
              "name": "requestID",
              "type": "uint256"
            },
            {
              "internalType": "uint256",
              "name": "challenge",
              "type": "uint256"
            },
            {
              "internalType": "uint256",
              "name": "gistRoot",
              "type": "uint256"
            },
            {
              "internalType": "uint256",
              "name": "issuerID",
              "type": "uint256"
            },
            {
              "internalType": "uint256",
              "name": "isRevocationChecked",
              "type": "uint256"
            },
            {
              "internalType": "uint256",
              "name": "issuerClaimNonRevState",
              "type": "uint256"
            },
            {
              "internalType": "uint256",
              "name": "timestamp",
              "type": "uint256"
            }
          ],
          "internalType": "struct CredentialAtomicQueryV2ValidatorBase.PubSignals",
          "name": "",
          "type": "tuple"
        }
      ],
      "stateMutability": "pure",
      "type": "function"
    },
    {
      "inputs": [],
      "name": "pendingOwner",
      "outputs": [
        {
          "internalType": "address",
          "name": "",
          "type": "address"
        }
      ],
      "stateMutability": "view",
      "type": "function"
    },
    {
      "inputs": [],
      "name": "renounceOwnership",
      "outputs": [],
      "stateMutability": "nonpayable",
      "type": "function"
    },
    {
      "inputs": [
        {
          "internalType": "uint256",
          "name": "expirationTimeout",
          "type": "uint256"
        }
      ],
      "name": "setGISTRootExpirationTimeout",
      "outputs": [],
      "stateMutability": "nonpayable",
      "type": "function"
    },
    {
      "inputs": [
        {
          "internalType": "uint256",
          "name": "expirationTimeout",
          "type": "uint256"
        }
      ],
      "name": "setProofExpirationTimeout",
      "outputs": [],
      "stateMutability": "nonpayable",
      "type": "function"
    },
    {
      "inputs": [
        {
          "internalType": "uint256",
          "name": "expirationTimeout",
          "type": "uint256"
        }
      ],
      "name": "setRevocationStateExpirationTimeout",
      "outputs": [],
      "stateMutability": "nonpayable",
      "type": "function"
    },
    {
      "inputs": [
        {
          "internalType": "address",
          "name": "stateContractAddr",
          "type": "address"
        }
      ],
      "name": "setStateAddress",
      "outputs": [],
      "stateMutability": "nonpayable",
      "type": "function"
    },
    {
      "inputs": [
        {
          "internalType": "bytes4",
          "name": "interfaceId",
          "type": "bytes4"
        }
      ],
      "name": "supportsInterface",
      "outputs": [
        {
          "internalType": "bool",
          "name": "",
          "type": "bool"
        }
      ],
      "stateMutability": "view",
      "type": "function"
    },
    {
      "inputs": [
        {
          "internalType": "address",
          "name": "newOwner",
          "type": "address"
        }
      ],
      "name": "transferOwnership",
      "outputs": [],
      "stateMutability": "nonpayable",
      "type": "function"
    },
    {
      "inputs": [
        {
          "internalType": "uint256[]",
          "name": "inputs",
          "type": "uint256[]"
        },
        {
          "internalType": "uint256[2]",
          "name": "a",
          "type": "uint256[2]"
        },
        {
          "internalType": "uint256[2][2]",
          "name": "b",
          "type": "uint256[2][2]"
        },
        {
          "internalType": "uint256[2]",
          "name": "c",
          "type": "uint256[2]"
        },
        {
          "internalType": "bytes",
          "name": "data",
          "type": "bytes"
        },
        {
          "internalType": "address",
          "name": "sender",
          "type": "address"
        }
      ],
      "name": "verify",
      "outputs": [
        {
          "components": [
            {
              "internalType": "string",
              "name": "key",
              "type": "string"
            },
            {
              "internalType": "uint256",
              "name": "inputIndex",
              "type": "uint256"
            }
          ],
          "internalType": "struct ICircuitValidator.KeyToInputIndex[]",
          "name": "",
          "type": "tuple[]"
        }
      ],
      "stateMutability": "view",
      "type": "function"
    },
    {
      "inputs": [],
      "name": "version",
      "outputs": [
        {
          "internalType": "string",
          "name": "",
          "type": "string"
        }
      ],
      "stateMutability": "pure",
      "type": "function"
    }
  ],
  "transactionHash": "0x2d823e88cba93a0407cc0e167a2bfcd6c87828dd98f9b990ef4a5df57a3645ab",
  "args": [],
  "numDeployments": 1,
  "solcInputHash": "a0a5c08d8a573c8b013e1a01f6f1b520",
  "bytecode": "0x608080604052346100165761254a908161001c8239f35b600080fdfe6080604052600436101561001257600080fd5b60003560e01c806301ffc9a7146101625780631134b4801461015d5780631c4c7fd81461015857806331969e5714610153578063485cc9551461014e57806348d369201461014957806354fd4d5014610103578063652377dc14610144578063715018a61461013f57806379ba50971461013a5780638c752c75146101355780638da5cb5b14610130578063af4c4fd51461012b578063b16a394f14610126578063ba47e32a14610121578063e30c39781461011c578063f177a69e14610117578063f2fde38b14610112578063f718c5861461010d578063fb5af2a2146101085763ffa1ad741461010357600080fd5b61048d565b610bcc565b610abd565b610a36565b610992565b61089a565b61085d565b6107d1565b610662565b61062c565b6105ef565b61059c565b610517565b6104d7565b610405565b6102cb565b610295565b610240565b6101bd565b346101b85760203660031901126101b85760043563ffffffff60e01b81168091036101b85760209063efba202360e01b81149081156101a7575b506040519015158152f35b6301ffc9a760e01b1490503861019c565b600080fd5b346101b85760203660031901126101b8576101d6610e59565b6004357f28c92975a30f1f2f7970a65953987652034d896ba2d3b7a4961ada9e1828750555005b600435906001600160a01b03821682036101b857565b602435906001600160a01b03821682036101b857565b61014435906001600160a01b03821682036101b857565b346101b85760203660031901126101b85761029361025c6101fd565b610264610e59565b6000805160206124b583398151915280546001600160a01b0319166001600160a01b0392909216919091179055565b005b346101b85760003660031901126101b8576000805160206124b5833981519152546040516001600160a01b039091168152602090f35b346101b85760403660031901126101b8576102e46101fd565b6102ec610213565b906000805160206124d583398151915254916001600160401b0360ff8460401c16159316801590816103fd575b60011490816103f3575b1590816103ea575b506103d8576000805160206124d5833981519152805467ffffffffffffffff1916600117905561035f91836103ae57611022565b61036557005b6000805160206124d5833981519152805460ff60401b19169055604051600181527fc7f505b2f371ae2175ee4913f4499e1f2633a7b5936321eed1cdaeb6115181d290602090a1005b6000805160206124d5833981519152805460ff60401b191668010000000000000000179055611022565b60405163f92ee8a960e01b8152600490fd5b9050153861032b565b303b159150610323565b849150610319565b346101b85760203660031901126101b85761041e610e59565b6004357f28c92975a30f1f2f7970a65953987652034d896ba2d3b7a4961ada9e1828750455005b60005b8381106104585750506000910152565b8181015183820152602001610448565b9060209161048181518092818552858086019101610445565b601f01601f1916010190565b346101b85760003660031901126101b8576104d36040516104ad816106d5565b6005815264322e302e3160d81b6020820152604051918291602083526020830190610468565b0390f35b346101b85760203660031901126101b8576104f0610e59565b6004357f28c92975a30f1f2f7970a65953987652034d896ba2d3b7a4961ada9e1828750355005b346101b85760008060031936011261059957610531610e59565b6000805160206124f583398151915280546001600160a01b03199081169091556000805160206124958339815191528054918216905581906001600160a01b03167f8be0079c531659141344cd1fd0a4f28419497f9722a3daafe3b4186f6b6457e08280a380f35b80fd5b346101b85760003660031901126101b8576000805160206124f583398151915254336001600160a01b03909116036105d75761029333610deb565b60405163118cdaa760e01b8152336004820152602490fd5b346101b85760003660031901126101b85760207f28c92975a30f1f2f7970a65953987652034d896ba2d3b7a4961ada9e1828750554604051908152f35b346101b85760003660031901126101b857600080516020612495833981519152546040516001600160a01b039091168152602090f35b346101b85760003660031901126101b85760207f28c92975a30f1f2f7970a65953987652034d896ba2d3b7a4961ada9e1828750354604051908152f35b634e487b7160e01b600052604160045260246000fd5b602081019081106001600160401b038211176106d057604052565b61069f565b604081019081106001600160401b038211176106d057604052565b606081019081106001600160401b038211176106d057604052565b90601f801991011681019081106001600160401b038211176106d057604052565b6040519061016082018281106001600160401b038211176106d057604052565b6040519061014082018281106001600160401b038211176106d057604052565b60405190610779826106d5565b565b81601f820112156101b8578035906001600160401b0382116106d057604051926107af601f8401601f19166020018561070b565b828452602083830101116101b857816000926020809301838601378301015290565b346101b85760203660031901126101b8576004356001600160401b0381116101b85761080461080991369060040161077b565b610d4b565b54801561082157604051600019919091018152602090f35b60405162461bcd60e51b8152602060048201526014602482015273125b9c1d5d081b985b59481b9bdd08199bdd5b9960621b6044820152606490fd5b346101b85760003660031901126101b85760207f28c92975a30f1f2f7970a65953987652034d896ba2d3b7a4961ada9e1828750454604051908152f35b346101b85760003660031901126101b8576000805160206124f5833981519152546040516001600160a01b039091168152602090f35b9181601f840112156101b8578235916001600160401b0383116101b8576020808501948460051b0101116101b857565b906024916064116101b857565b9060e491610124116101b857565b602080820190808352835180925260409283810182858560051b8401019601946000925b858410610950575050505050505090565b909192939495968580600192603f198582030187528a5190828061097b84518a85528a850190610468565b93015191015299019401940192959493919061093f565b346101b8576101603660031901126101b8576001600160401b036004358181116101b8576109c49036906004016108d0565b906109ce36610900565b923660e4116101b8576109e03661090d565b9161012435928284116101b857366023850112156101b85783600401359283116101b85736602484860101116101b8576104d395610a2a956024610a22610229565b960193611ad9565b6040519182918261091b565b346101b85760203660031901126101b857610a4f6101fd565b610a57610e59565b6000805160206124f583398151915280546001600160a01b0319166001600160a01b03928316908117909155600080516020612495833981519152549091167f38d16b8cac22d99fc7c124b9cd0de2d3fa1faef420bfe791d8c362d765e22700600080a3005b346101b85760203660031901126101b8576004356001600160401b0381116101b857610af9610af36101609236906004016108d0565b906116a7565b60405190805182526020810151602083015260408101516040830152606081015160608301526080810151608083015260a081015160a083015260c081015160c083015260e081015160e0830152610100808201519083015261012080820151908301526101408091015190820152f35b602080820190808352835180925260408301928160408460051b8301019501936000915b848310610b9e5750505050505090565b9091929394958480610bbc600193603f198682030187528a51610468565b9801930193019194939290610b8e565b346101b857600080600319360112610599577f28c92975a30f1f2f7970a65953987652034d896ba2d3b7a4961ada9e1828750190815490610c0c82610cfa565b91604091610c1c8351948561070b565b8184529384527fabff3b23bb0cb48bf8af6c9a19292e3671159a93c05f3dc6ba7a90443edecb57938060208086015b848310610c5f578551806104d38982610b6a565b85518285928a5492610c7084610d11565b808252600194808616908115610cde5750600114610ca6575b50610c9881600196038261070b565b815201980192019196610c4b565b8c8952838920955088905b808210610cc75750810183019450610c98610c89565b865483830186015295850195879490910190610cb1565b60ff19168584015250151560051b810183019450610c98610c89565b6001600160401b0381116106d05760051b60200190565b90600182811c92168015610d41575b6020831014610d2b57565b634e487b7160e01b600052602260045260246000fd5b91607f1691610d20565b6020610d64918160405193828580945193849201610445565b81017f28c92975a30f1f2f7970a65953987652034d896ba2d3b7a4961ada9e1828750681520301902090565b6020610da9918160405193828580945193849201610445565b81017f28c92975a30f1f2f7970a65953987652034d896ba2d3b7a4961ada9e1828750081520301902090565b634e487b7160e01b600052601160045260246000fd5b6000805160206124f583398151915280546001600160a01b031990811690915560008051602061249583398151915280549182166001600160a01b0393841690811790915591167f8be0079c531659141344cd1fd0a4f28419497f9722a3daafe3b4186f6b6457e0600080a3565b600080516020612495833981519152546001600160a01b031633036105d757565b60405190610e87826106d5565b60068252651d5cd95c925160d21b6020830152565b60405190610ea9826106d5565b600f82526e69737375657241757468537461746560881b6020830152565b60405190610ed4826106d5565b60098252681c995c5d595cdd125160ba1b6020830152565b60405190610ef9826106d5565b60098252686368616c6c656e676560b81b6020830152565b60405190610f1e826106d5565b600882526719da5cdd149bdbdd60c21b6020830152565b60405190610f42826106d5565b60088252671a5cdcdd595c925160c21b6020830152565b60405190610f66826106d5565b60138252721a5cd4995d9bd8d85d1a5bdb90da1958dad959606a1b6020830152565b60405190610f95826106d5565b6016825275697373756572436c61696d4e6f6e526576537461746560501b6020830152565b60405190610fc7826106d5565b6009825268074696d657374616d760bc1b6020830152565b60405190610fec826106f0565b60218252603760f91b6040837f63726564656e7469616c41746f6d6963517565727953696756324f6e4368616960208201520152565b90611124916001611053604051611038816106d5565b60098152681b595c9adb1a5e995960ba1b6020820152610d4b565b556002611061610804610e7a565b556003611095604051611073816106d5565b601081526f0c6d2e4c6ead2e8a2eacae4f290c2e6d60831b6020820152610d4b565b556110a66110a1610e9c565b6114bb565b6110b66110b1610ec7565b6114c9565b6110c66110c1610eec565b6114d4565b6110d66110d1610f11565b6114df565b6110e66110e1610f35565b6114ea565b6110f66110f1610f59565b6114f5565b611106611101610f88565b611500565b611116611111610fba565b61150b565b61111e610fdf565b91611257565b61077933611516565b818110611138575050565b6000815560010161112d565b9190601f811161115357505050565b610779926000526020600020906020601f840160051c8301931061117f575b601f0160051c019061112d565b9091508190611172565b91909182516001600160401b0381116106d0576111b0816111aa8454610d11565b84611144565b602080601f83116001146111ec5750819293946000926111e1575b50508160011b916000199060031b1c1916179055565b0151905038806111cb565b90601f1983169561120285600052602060002090565b926000905b88821061123f57505083600195969710611226575b505050811b019055565b015160001960f88460031b161c1916905538808061121c565b80600185968294968601518155019501930190611207565b929192610e10807f28c92975a30f1f2f7970a65953987652034d896ba2d3b7a4961ada9e1828750355807f28c92975a30f1f2f7970a65953987652034d896ba2d3b7a4961ada9e18287504557f28c92975a30f1f2f7970a65953987652034d896ba2d3b7a4961ada9e18287505556040516112d1816106b5565b8481527f28c92975a30f1f2f7970a65953987652034d896ba2d3b7a4961ada9e18287501908154916001928382558084106113e7575b50507f28c92975a30f1f2f7970a65953987652034d896ba2d3b7a4961ada9e182875016000527fabff3b23bb0cb48bf8af6c9a19292e3671159a93c05f3dc6ba7a90443edecb57906000905b8382106113cb5750949561112495506001600160a01b039461139c93508516915061137d90610d90565b80546001600160a01b0319166001600160a01b03909216919091179055565b6000805160206124b58339815191528054919092166001600160a01b03166001600160a01b0319909116179055565b836020826113db83945187611189565b01930191019091611353565b60009182527fabff3b23bb0cb48bf8af6c9a19292e3671159a93c05f3dc6ba7a90443edecb570190837fabff3b23bb0cb48bf8af6c9a19292e3671159a93c05f3dc6ba7a90443edecb585b838110611440575050611307565b61144a8154610d11565b80611459575b50018490611432565b601f9083828211600114611474575050508281555b38611450565b6114959261148785600052602060002090565b920160051c8201910161112d565b6000818152602081208183555561146e565b60001981146114b65760010190565b610dd5565b6114c6600491610d4b565b55565b6114c6600591610d4b565b6114c6600691610d4b565b6114c6600791610d4b565b6114c6600891610d4b565b6114c6600991610d4b565b6114c6600a91610d4b565b6114c6600b91610d4b565b61151e611557565b611526611557565b6001600160a01b0381161561153e5761077990610deb565b604051631e4fbdf760e01b815260006004820152602490fd5b60ff6000805160206124d58339815191525460401c161561157457565b604051631afcd79f60e31b8152600490fd5b6040519061016082018281106001600160401b038211176106d057604052816101406000918281528260208201528260408201528260608201528260808201528260a08201528260c08201528260e082015282610100820152826101208201520152565b634e487b7160e01b600052603260045260246000fd5b90156116095790565b6115ea565b90600110156116095760200190565b90600210156116095760400190565b90600310156116095760600190565b90600410156116095760800190565b90600510156116095760a00190565b90600610156116095760c00190565b90600710156116095760e00190565b9060081015611609576101000190565b9060091015611609576101200190565b90600a1015611609576101400190565b906116b0611586565b506116bb8183611600565b35916116c7828261160e565b35916116d3818361161d565b356116de828461162c565b35906116ea838561163b565b356116f5848661164a565b35906117018587611659565b359261170d8688611668565b359461172f61171c888a611677565b3597611728818b611687565b3599611697565b359861173961072c565b9a8b5260208b015260408a01526060890152608088015260a087015260c086015260e085015261010084015261012083015261014082015290565b81601f820112156101b85780359161178b83610cfa565b92611799604051948561070b565b808452602092838086019260051b8201019283116101b8578301905b8282106117c3575050505090565b813581529083019083016117b5565b9080601f830112156101b8578135906117ea82610cfa565b926117f8604051948561070b565b828452602092838086019160051b830101928084116101b857848301915b8483106118265750505050505090565b82356001600160401b0381116101b85786916118478484809489010161077b565b815201920191611816565b801515036101b857565b359061077982611852565b6020818303126101b85780356001600160401b03918282116101b8570190610140828403126101b85761189861074c565b928235845260208301356020850152604083013560408501526060830135606085015260808301358281116101b857816118d3918501611774565b608085015260a083013560a085015260c08301358281116101b857816118fa918501611774565b60c085015260e08301359182116101b8576119169183016117d2565b60e083015261010061192981830161185c565b90830152610120809101359082015290565b8051156116095760200190565b8051600110156116095760400190565b80518210156116095760209160051b010190565b1561197357565b60405162461bcd60e51b8152602060048201526012602482015271125b9d985b1a590818da5c98dd5a5d08125160721b6044820152606490fd5b908160209103126101b857516119c281611852565b90565b929391604080928537606460008584015b8460028310611a18575050505060c0840137610120610100830181905282018190526001600160fb1b0381116101b85760051b90816101409384830137010190565b8082818660019537019301910190916119d6565b6040513d6000823e3d90fd5b15611a3f57565b60405162461bcd60e51b8152602060048201526012602482015271141c9bdbd9881a5cc81b9bdd081d985b1a5960721b6044820152606490fd5b15611a8057565b60405162461bcd60e51b815260206004820152602b60248201527f5175657279206861736820646f6573206e6f74206d617463682074686520726560448201526a71756573746564206f6e6560a81b6064820152608490fd5b81969592611aee829660209495810190611867565b9460e08601916001611b19611b0c611b06865161193b565b51610d90565b546001600160a01b031690565b9351511480611c0a575b611b2c9061196c565b611b4c60405196879586948594630984a41f60e21b8652600486016119c5565b03916001600160a01b03165afa8015611c0557611bcf9560a094611b7f611b8493611bc895600091611bd7575b50611a38565b6116a7565b91611b9760608401518583015114611a79565b611ba783516020830151906122c9565b611bbc60e084019160c0835191015190612129565b51604083015190611ce2565b01516121bb565b6119c261232d565b611bf8915060203d8111611bfe575b611bf0818361070b565b8101906119ad565b38611b79565b503d611be6565b611a2c565b506001600160a01b0383161515611b23565b908160e09103126101b8576040519060e08201908282106001600160401b038311176106d05760c091604052805183526020810151602084015260408101516040840152606081015160608401526080810151608084015260a081015160a0840152015160c082015290565b15611c8f57565b60405162461bcd60e51b815260206004820152602560248201527f537461746520646f65736e277420657869737420696e20737461746520636f6e6044820152641d1c9858dd60da1b6064820152608490fd5b611d25611d1f83611cfa611cf585611ff3565b611fda565b602081519101519061ffff60f01b918281169160028110611db6575b50509050611e6c565b82141590565b611d2d575050565b6000805160206124b5833981519152546040516329e4398960e11b815260048101839052602481019390935260e090839060449082906001600160a01b03165afa8015611c055761077992600091611d88575b505114611c88565b611da9915060e03d8111611daf575b611da1818361070b565b810190611c1c565b38611d80565b503d611d97565b8391925060020360031b1b1616803880611d16565b15611dd257565b60405162461bcd60e51b815260206004820152602160248201527f436865636b73756d207265717569726573203239206c656e67746820617272616044820152607960f81b6064820152608490fd5b15611e2857565b606460405162461bcd60e51b815260206004820152602060248201527f69644279746573207265717569726573203331206c656e6774682061727261796044820152fd5b90611cf5611e7991611ff3565b908151601a1981018181116114b657611e9e90611e97855191612446565b1115612454565b60405192601b84019101603684015b808310611f7c575050611f59601f611f05611f0a86611ef9611f05611f7798611f6598601b6119c29c5287199788910116928391826040526020830160029161ffff60f01b1681520190565b0386810183528261070b565b6123cd565b91611f18601d845114611dcb565b611f37611f2484611f8f565b60ff61ff008260081b169160081c161790565b60405160f09190911b6001600160f01b03191660208201529384906022820190565b0390810184528361070b565b611f72601f825114611e21565b612106565b611ff3565b9091825181526020809101920190611ead565b90600091611fa0601d825114611dcb565b6000925b8151841015611fd5576020848301015160f81c61ffff809216019081116114b657611fcf90936114a7565b92611fa4565b925050565b9060405191611fe8836106d5565b602083526020830152565b8060081c9060081b907eff000000ff000000ff000000ff000000ff000000ff000000ff000000ff00007fff000000ff000000ff000000ff000000ff000000ff000000ff000000ff0000007dff000000ff000000ff000000ff000000ff000000ff000000ff000000ff0084167cff000000ff000000ff000000ff000000ff000000ff000000ff000000ff84161760101b931691161760101c177bffffffff00000000ffffffff00000000ffffffff00000000ffffffff7fffffffff00000000ffffffff00000000ffffffff00000000ffffffff000000008260201b169160201c161777ffffffffffffffff0000000000000000ffffffffffffffff80198260401b169160401c16178060801b9060801c1790565b60208151910151906020811061211a575090565b6000199060200360031b1b1690565b8151156121b75760005b8251811015612160576121468184611958565b51821461215b57612156906114a7565b612133565b505050565b60405162461bcd60e51b815260206004820152602960248201527f497373756572206973206e6f74206f6e2074686520416c6c6f776564204973736044820152681d595c9cc81b1a5cdd60ba1b6064820152608490fd5b5050565b6001600160a01b039080821681036122385760146121dc611cf58493611ff3565b015192169116036121e957565b60405162461bcd60e51b815260206004820152602160248201527f4368616c6c656e67652073686f756c64206d61746368207468652073656e64656044820152603960f91b6064820152608490fd5b60405162461bcd60e51b815260206004820152605d60248201527f676976656e2075696e74323536206973206e6f74206120726570726573656e7460448201527f6174696f6e206f6620616e20616464726573732c203132206d6f73742073696760648201527f6e69666963616e742062797465732073686f756c64206265207a65726f000000608482015260a490fd5b9060009015612325575060ff60015b16036122e057565b60405162461bcd60e51b815260206004820152601e60248201527f4d65726b6c697a65642076616c7565206973206e6f7420636f727265637400006044820152606490fd5b60ff906122d8565b604080519061233b826106f0565b600282526000805b8281106123aa5750505061235561076c565b61235d610e7a565b81526001602082015261236f8261193b565b526123798161193b565b5061238261076c565b61238a610fba565b8152600a602082015261239c82611948565b526123a681611948565b5090565b60209083516123b8816106d5565b60608152828481830152828701015201612343565b6040519181518084526020808501918501928184019282808701915b8581106124365750505080518093875182018852940193828086019201905b828110612427575050505090603f91601f199351011501011660405290565b81518152908301908301612408565b82518152918101918491016123e9565b90601b82018092116114b657565b1561245b57565b60405162461bcd60e51b8152602060048201526011602482015270736c6963655f6f75744f66426f756e647360781b6044820152606490fdfe9016d09d72d40fdae2fd8ceac6b6234c7706214fd39c1cd1e609a0528c19930028c92975a30f1f2f7970a65953987652034d896ba2d3b7a4961ada9e18287502f0c57e16840df040f15088dc2f81fe391c3923bec73e23a9662efc9c229c6a00237e158222e3e6968b72b9db0d8043aacf074ad9f650f0d1606b4d82ee432c00a2646970667358221220288db29c5f58ffc9f586defd65c4321c18f58e981c77c8988a65a01f1ed6588b64736f6c63430008140033",
  "devdoc": {
    "errors": {
      "InvalidInitialization()": [
        {
          "details": "The contract is already initialized."
        }
      ],
      "NotInitializing()": [
        {
          "details": "The contract is not initializing."
        }
      ],
      "OwnableInvalidOwner(address)": [
        {
          "details": "The owner is not a valid owner account. (eg. `address(0)`)"
        }
      ],
      "OwnableUnauthorizedAccount(address)": [
        {
          "details": "The caller account is not authorized to perform an operation."
        }
      ]
    },
    "events": {
      "Initialized(uint64)": {
        "details": "Triggered when the contract has been initialized or reinitialized."
      }
    },
    "kind": "dev",
    "methods": {
      "acceptOwnership()": {
        "details": "The new owner accepts the ownership transfer."
      },
      "owner()": {
        "details": "Returns the address of the current owner."
      },
      "pendingOwner()": {
        "details": "Returns the address of the pending owner."
      },
      "renounceOwnership()": {
        "details": "Leaves the contract without owner. It will not be possible to call `onlyOwner` functions. Can only be called by the current owner. NOTE: Renouncing ownership will leave the contract without an owner, thereby disabling any functionality that is only available to the owner."
      },
      "supportsInterface(bytes4)": {
        "details": "See {IERC165-supportsInterface}."
      },
      "transferOwnership(address)": {
        "details": "Starts the ownership transfer of the contract to a new account. Replaces the pending transfer if there is one. Can only be called by the current owner."
      }
    },
    "stateVariables": {
      "VERSION": {
        "details": "Version of contract"
      }
    },
    "version": 1
  },
  "userdoc": {
    "kind": "user",
    "methods": {},
    "version": 1
  },
  "storageLayout": {
    "storage": [],
    "types": null
  }
}