{
  "address": "0xd0aE4B03F4252B8543a77fBDbd3D4a2660eF95EA",
  "abi": [
    {
      "inputs": [
        {
          "internalType": "address",
          "name": "_implementationContract",
          "type": "address"
        }
      ],
      "stateMutability": "nonpayable",
      "type": "constructor"
    },
    {
      "anonymous": false,
      "inputs": [
        {
          "indexed": false,
          "internalType": "address",
          "name": "scenarioVerifierAddress",
          "type": "address"
        }
      ],
      "name": "NewVerifierEntrypointDeployed",
      "type": "event"
    },
    {
      "inputs": [],
      "name": "createVerifierEntrypoint",
      "outputs": [
        {
          "internalType": "address",
          "name": "",
          "type": "address"
        }
      ],
      "stateMutability": "nonpayable",
      "type": "function"
    }
  ],
  "transactionHash": "0x1e527abedbb06aa6b32465e4cca74d4a8e5e107c63a6e54ca69279741610606e",
  "args": [
    "0x45f8c72A03DA9d7e1a66594BB2A706fB48032cB6"
  ],
  "numDeployments": 1,
  "solcInputHash": "a0a5c08d8a573c8b013e1a01f6f1b520",
  "bytecode": "0x60a0346100ca57601f6102e938819003918201601f19168301916001600160401b038311848410176100cf578084926020946040528339810103126100ca57516001600160a01b0381168082036100ca571561006f5760805260405161020390816100e682396080518160550152f35b60405162461bcd60e51b815260206004820152602d60248201527f5f696d706c656d656e746174696f6e436f6e74726163742063616e277420626560448201526c207a65726f206164647265737360981b6064820152608490fd5b600080fd5b634e487b7160e01b600052604160045260246000fdfe608080604052600436101561001357600080fd5b6000803560e01c630fdef0ec1461002957600080fd5b3461014f578060031936011261014f57733d602d80600a3d3981f3363d3d373d3d3d363d7360601b82527f000000000000000000000000000000000000000000000000000000000000000060601b6094526e5af43d82803e903d91602b57fd5bf360881b60a85260378282f06001600160a01b038116929091908315610152576001600160a01b0383166080527f410e03aebce931ca4a775ffc62a5755d6ce6bf7863d607795fa6b95f002ba37290602090a1823b1561014f5760405163189acdbd60e31b8152336004820152928390602490829084905af191821561014a5761012d92610131575b506040516001600160a01b0390911681529081906020820190565b0390f35b8061013e61014492610197565b80610187565b38610112565b6101c1565b80fd5b62461bcd60e51b81526020608452601660a45275115490cc4c4d8dce8818dc99585d194819985a5b195960521b60c452606490fd5b600091031261019257565b600080fd5b67ffffffffffffffff81116101ab57604052565b634e487b7160e01b600052604160045260246000fd5b6040513d6000823e3d90fdfea2646970667358221220b68f13246e3704d06efd530c54baa189eee95caa0f9b157d1ab231545001fc3264736f6c63430008140033",
  "devdoc": {
    "details": "Factory contract to create and deploy instances of the NexeraVerifierEntrypoint contract.",
    "events": {
      "NewVerifierEntrypointDeployed(address)": {
        "details": "Event emitted when a new VerifierEntrypoint contract is created.",
        "params": {
          "scenarioVerifierAddress": "The address of the newly deployed VerifierEntrypoint contract."
        }
      }
    },
    "kind": "dev",
    "methods": {
      "constructor": {
        "details": "Constructor to set the implementation contract address.",
        "params": {
          "_implementationContract": "The address of the VerifierEntrypoint implementation contract."
        }
      },
      "createVerifierEntrypoint()": {
        "details": "Creates a new VerifierEntrypoint contract and initializes it.",
        "returns": {
          "_0": "clone The address of the newly created VerifierEntrypoint contract."
        }
      }
    },
    "title": "VerifierEntrypointFactory",
    "version": 1
  },
  "userdoc": {
    "kind": "user",
    "methods": {},
    "version": 1
  },
  "storageLayout": {
    "storage": [],
    "types": null
  }
}