{
  "address": "0x17d321C2507246222d43165E337B9dB30d6dC134",
  "abi": [
    {
      "inputs": [
        {
          "internalType": "address",
          "name": "_nexeraVerifierAddress",
          "type": "address"
        }
      ],
      "stateMutability": "nonpayable",
      "type": "constructor"
    },
    {
      "anonymous": false,
      "inputs": [
        {
          "indexed": false,
          "internalType": "address",
          "name": "sender",
          "type": "address"
        },
        {
          "indexed": false,
          "internalType": "uint256",
          "name": "amount",
          "type": "uint256"
        }
      ],
      "name": "Received",
      "type": "event"
    },
    {
      "stateMutability": "payable",
      "type": "fallback"
    },
    {
      "inputs": [],
      "name": "aavePoolAddress",
      "outputs": [
        {
          "internalType": "address",
          "name": "",
          "type": "address"
        }
      ],
      "stateMutability": "view",
      "type": "function"
    },
    {
      "inputs": [],
      "name": "nexeraVerifierAddress",
      "outputs": [
        {
          "internalType": "address",
          "name": "",
          "type": "address"
        }
      ],
      "stateMutability": "view",
      "type": "function"
    },
    {
      "inputs": [
        {
          "internalType": "address",
          "name": "_token",
          "type": "address"
        },
        {
          "internalType": "uint256",
          "name": "_amount",
          "type": "uint256"
        },
        {
          "internalType": "address",
          "name": "_user",
          "type": "address"
        }
      ],
      "name": "supply",
      "outputs": [],
      "stateMutability": "nonpayable",
      "type": "function"
    },
    {
      "inputs": [
        {
          "internalType": "address",
          "name": "asset",
          "type": "address"
        },
        {
          "internalType": "uint256",
          "name": "amount",
          "type": "uint256"
        },
        {
          "internalType": "address",
          "name": "onBehalfOf",
          "type": "address"
        },
        {
          "internalType": "uint16",
          "name": "referralCode",
          "type": "uint16"
        },
        {
          "internalType": "uint256",
          "name": "deadline",
          "type": "uint256"
        },
        {
          "internalType": "uint8",
          "name": "permitV",
          "type": "uint8"
        },
        {
          "internalType": "bytes32",
          "name": "permitR",
          "type": "bytes32"
        },
        {
          "internalType": "bytes32",
          "name": "permitS",
          "type": "bytes32"
        }
      ],
      "name": "supplyWithPermit",
      "outputs": [],
      "stateMutability": "nonpayable",
      "type": "function"
    },
    {
      "stateMutability": "payable",
      "type": "receive"
    }
  ],
  "transactionHash": "0xfb65a51ff0410ec077d4fe83019dc40224e324bfbfd35252ee0e1854adfbac43",
  "args": [
    "0x41dd2b4c1ECE8f5cCd2BB901c43db030Af291629"
  ],
  "numDeployments": 1,
  "solcInputHash": "a0a5c08d8a573c8b013e1a01f6f1b520",
  "bytecode": "0x60803461007457601f6103e438819003918201601f19168301916001600160401b038311848410176100795780849260209460405283398101031261007457516001600160a01b0381169081900361007457600080546001600160a01b03191691909117905560405161035490816100908239f35b600080fd5b634e487b7160e01b600052604160045260246000fdfe6080604052600436101561001d575b366102a95761001b610278565b005b6000803560e01c90816302c205f014610060575080638b2a4df51461005b578063a654897b146100565763ee567cd90361000e57610123565b6100fa565b6100d2565b3461009e5761010036600319011261009e5761007a6100a1565b506100836100bc565b5060643561ffff81160361009e5760a43560ff8116146101fa575b80fd5b600435906001600160a01b03821682036100b757565b600080fd5b604435906001600160a01b03821682036100b757565b346100b75760603660031901126100b7576100eb6100a1565b506100f46100bc565b506102a9565b346100b75760003660031901126100b7576000546040516001600160a01b039091168152602090f35b346100b75760003660031901126100b757602060405173cc6114b983e4ed2737e9bd3961c9924e6216c7048152f35b90601f8019910116810190811067ffffffffffffffff82111761017457604052565b634e487b7160e01b600052604160045260246000fd5b908160209103126100b7575180151581036100b75790565b6040513d6000823e3d90fd5b156101b557565b60405162461bcd60e51b815260206004820152601760248201527f55736572206973206e6f742077686974656c69737465640000000000000000006044820152606490fd5b6000805460405163b347e74160e01b81523360048201529160209183916024918391906001600160a01b03165af180156102735761024091600091610245575b506101ae565b6102a9565b610266915060203d811161026c575b61025e8183610152565b81019061018a565b3861023a565b503d610254565b6101a2565b7f88a5966d370b9919b20f3e2c13ff65706f196a4e32cc2c12bf57088f8852587460408051338152346020820152a1565b6000805460405163b347e74160e01b8152336004820152906020908290602490829086906001600160a01b03165af18015610273576102ee91839161024557506101ae565b368180378080368173cc6114b983e4ed2737e9bd3961c9924e6216c7045af43d82803e1561031a573d90f35b3d90fdfea26469706673582212209e9f48c389ed92901f9121b8bc280f1e9d0a83b36df4efdc5b0776a828e55a4e64736f6c63430008140033",
  "devdoc": {
    "kind": "dev",
    "methods": {
      "constructor": {
        "details": "Constructor that sets the Nexera Verifier address.",
        "params": {
          "_nexeraVerifierAddress": "Address of the Nexera Verifier contract."
        }
      },
      "supply(address,uint256,address)": {
        "details": "we add this in addition to the fallback in order to get it in the generated interface",
        "params": {
          "_amount": "Amount of the token to supply.",
          "_token": "Address of the token being supplied.",
          "_user": "Address of the user on whose behalf the supply is made."
        }
      },
      "supplyWithPermit(address,uint256,address,uint16,uint256,uint8,bytes32,bytes32)": {
        "details": "we add this in addition to the fallback in order to get it in the generated interface",
        "params": {
          "amount": "Amount of the asset.",
          "asset": "Address of the asset.",
          "deadline": "Deadline after which the permit is no longer valid.",
          "onBehalfOf": "Address of the user on whose behalf the supply is made.",
          "permitR": "R component of the permit signature.",
          "permitS": "S component of the permit signature.",
          "permitV": "V component of the permit signature.",
          "referralCode": "Referral code."
        }
      }
    },
    "title": "ProxyAavePool",
    "version": 1
  },
  "userdoc": {
    "kind": "user",
    "methods": {
      "supply(address,uint256,address)": {
        "notice": "Delegates the supply function call to the Aave Pool."
      },
      "supplyWithPermit(address,uint256,address,uint16,uint256,uint8,bytes32,bytes32)": {
        "notice": "Delegates the supplyWithPermit function call to the Aave Pool."
      }
    },
    "notice": "This example contract acts as a proxy for interacting with the Aave Pool, integrating with the Nexera entrypoint verifier for gating users.",
    "version": 1
  },
  "storageLayout": {
    "storage": [
      {
        "astId": 7103,
        "contract": "contracts/gatedExamples/ProxyAavePool.sol:ProxyAavePool",
        "label": "nexeraVerifierAddress",
        "offset": 0,
        "slot": "0",
        "type": "t_address"
      }
    ],
    "types": {
      "t_address": {
        "encoding": "inplace",
        "label": "address",
        "numberOfBytes": "20"
      }
    }
  }
}